:0E098200011D0001080002090000021B000018
:0A090300C290C2B28FA07F057E00F3
:10090D00E4FDFCC3ED9FEC9E5015E4FAFB0BBB0020
:0F091D00010AEB64784A70F50DBD00010C80E40F
:01092C0022A8
:10096F00759850758920758DFF758BFFD2ACD2AFFE
:03097F00D28E22F3
:1008D500AF1DE50A25E0240BF8760008A607050AF2
:1008E500E50A70020509640845097009F509F50A64
:0E08F500F51B751C01851D993099FDC29922D5
:0A099100D2B3120903D2B2C2B2229F
:0A099B00C2B3120903D2B2C2B222A5
:100953007F387E0012099B7F0C7E0012099B7F0665
:0C0963007E0012099B7F017E0002099BB0
:10088C007F807E0012099B120909E4F583F582AF83
:10089C0082EF25E0240BF8E6FE08E6FF1209911220
:1008AC000909A3E5826408458370E47F487E001241
:1008BC0009911209097F5A1209911209097F321202
:0908CC0009917F057E0002090D6F
:10092D0012095312096F12088CE51C6401451B70E6
:10093D000812088CE4F51BF51CE508B401EB120850
:06094D00D5E4F50880E38B
:030023000209A52A
:0909A50085991DC2987508013204
:03000000020800F3
:0C080000787FE4F6D8FD75811D020847E2
:10080C0002092DE493A3F8E493A34003F68001F2CC
:10081C0008DFF48029E493A3F85407240CC8C333ED
:10082C00C4540F4420C8834004F456800146F6DFBC
:10083C00E4800B0102040810204080900982E47EC1
:10084C00019360BCA3FF543F30E509541FFEE493B1
:10085C00A360010ECF54C025E060A840B8E493A378
:10086C00FAE493A3F8E493A3C8C582C8CAC583CAA3
:10087C00F0A3C8C582C8CAC583CADFE9DEE780BE5B
:010990000066
:00000001FF
