:100BD100012000010B00010A00020C0000020E00BE
:050BE100000208000005
:0A0B6700C292C2B28FA07F057E008B
:100B7100E4FDFCC3ED9FEC9E5015E4FAFB0BBB00BA
:0F0B8100010AEB64784A70F50DBD00010C80E4A9
:010B90002242
:0C0BF400759850438920758DFFD28E2229
:080C14008F993099FDC299226D
:0A0C0000D2B3120B67D2B2C2B222C7
:0A0C0A00C2B3120B67D2B2C2B222CD
:100BB5007F387E00120C0A7F0C7E00120C0A7F061D
:0C0BC5007E00120C0A7F017E00020C0A68
:100B3B007FC27E00120C0A120B6DE4F583F582AFB7
:100B4B0082EF25E02410F808E62430FF120C001287
:0B0B5B000B6DA3E5826408458370E485
:010B6600226C
:100B9100438905E4F50CF50DF50EF50FF50AF58C15
:100BA100F58A75CD98F5CCF5C8D2ADD2A9D2CAD205
:040BB1008CD2AF2211
:10095900E4F522F523AD8C7C00E42DFFEFFEAD8A92
:10096900E42DFFEC3EFE7D05120800EE3395E08F85
:10097900278E26F525F524752107E47B0AFAF9F86F
:10098900AF27AE26AD25AC24120A84AE02AF03E52B
:100999002125E02410F8A60608A607AF27AE26AD44
:1009A90025AC24E47B0AFAF9F8120A848F278E26EB
:1009B9008D258C24D521C3852610852711E4F522A0
:1009C900F523E52325E02410F808E62430F520FF77
:1009D900120C14120B6D0523E52370020522D39422
:0E09E90007E5226480948040D9E4F58CF58AFD
:0109F70022DD
:100AC800E4FF7E107810E4F608DEFC7E007F081252
:100AD8000BB5120B91120BF47F647E00120B71E5BB
:100AE8000AB401F4120959120B3B7F48120C001288
:0F0AF8000B6D7F5A120C00120B6DE4F50A80D9BA
:03000B00020BE7FE
:0D0BE700C0E0050DE50D7002050CD0E032F8
:03002B00020B07BE
:100B0700C0E0C0D0C2CF75CD9875CC00E50FB47CDE
:100B170016E50EB40111750A01750E00750F007503
:100B27000C00750D008008050FE50F7002050ED04B
:040B3700D0D0E03208
:030000000209F8FA
:0C09F800787FE4F6D8FD758127020A3FE5
:10080000C2D5EC30E709B2D5E4C39DFDE49CFCEE13
:1008100030E715B2D5E4C39FFFE49EFE120836C34D
:10082000E49DFDE49CFC800312083630D507C3E448
:060830009FFFE49EFE2282
:100A8400C2D5E830E70FB2D5E4C39BFBE49AFAE49D
:100A940099F9E498F8EC30E717B2D5120ABA1208BB
:100AA400C7E4C39BFBE49AFAE499F9E498F8800359
:100AB4001208C730D50DE4C39FFFE49EFEE49DFDFC
:040AC400E49CFC2290
:100A0400020AC8E493A3F8E493A34003F68001F236
:100A140008DFF48029E493A3F85407240CC8C333F3
:100A2400C4540F4420C8834004F456800146F6DFC2
:100A3400E4800B0102040810204080900BD1E47E76
:100A4400019360BCA3FF543F30E509541FFEE493B7
:100A5400A360010ECF54C025E060A840B8E493A37E
:100A6400FAE493A3F8E493A3C8C582C8CAC583CAA9
:100A7400F0A3C8C582C8CAC583CADFE9DEE780BE61
:010BE600000E
:10083600BC000BBE0029EF8DF084FFADF022E4CCA6
:10084600F875F008EF2FFFEE33FEEC33FCEE9DEC6F
:10085600984005FCEE9DFE0FD5F0E9E4CEFD22EDB5
:10086600F8F5F0EE8420D21CFEADF075F008EF2FFF
:10087600FFED33FD4007985006D5F0F222C398FDF0
:050886000FD5F0EA228D
:10088B0075F008758200EF2FFFEE33FECD33CDCC24
:10089B0033CCC58233C5829BED9AEC99E5829840A7
:1008AB000CF582EE9BFEED9AFDEC99FC0FD5F0D684
:1008BB00E4CEFBE4CDFAE4CCF9A88222B800C1B9AE
:1008CB000059BA002DEC8BF084CFCECDFCE5F0CBEC
:1008DB00F97818EF2FFFEE33FEED33FDEC33FCEB25
:1008EB0033FB10D703994004EB99FB0FD8E5E4F9E0
:1008FB00FA227818EF2FFFEE33FEED33FDEC33FCCD
:10090B00C933C910D7059BE99A4007EC9BFCE99AC0
:10091B00F90FD8E0E4C9FAE4CCFB2275F010EF2F05
:10092B00FFEE33FEED33FDCC33CCC833C810D70705
:10093B009BEC9AE899400AED9BFDEC9AFCE899F840
:0E094B000FD5F0DAE4CDFBE4CCFAE4C8F922D3
:00000001FF
